{
  "abi": [
    {
      "type": "constructor",
      "inputs": [
        {
          "name": "_feeToSetter",
          "type": "address",
          "internalType": "address"
        },
        {
          "name": "_dsFlashSWapRouter",
          "type": "address",
          "internalType": "address"
        }
      ],
      "stateMutability": "nonpayable"
    },
    {
      "type": "function",
      "name": "PAIR_INIT_CODE_HASH",
      "inputs": [],
      "outputs": [
        {
          "name": "",
          "type": "bytes32",
          "internalType": "bytes32"
        }
      ],
      "stateMutability": "view"
    },
    {
      "type": "function",
      "name": "allPairs",
      "inputs": [
        {
          "name": "",
          "type": "uint256",
          "internalType": "uint256"
        }
      ],
      "outputs": [
        {
          "name": "",
          "type": "address",
          "internalType": "address"
        }
      ],
      "stateMutability": "view"
    },
    {
      "type": "function",
      "name": "allPairsLength",
      "inputs": [],
      "outputs": [
        {
          "name": "",
          "type": "uint256",
          "internalType": "uint256"
        }
      ],
      "stateMutability": "view"
    },
    {
      "type": "function",
      "name": "createPair",
      "inputs": [
        {
          "name": "tokenA",
          "type": "address",
          "internalType": "address"
        },
        {
          "name": "tokenB",
          "type": "address",
          "internalType": "address"
        }
      ],
      "outputs": [
        {
          "name": "pair",
          "type": "address",
          "internalType": "address"
        }
      ],
      "stateMutability": "nonpayable"
    },
    {
      "type": "function",
      "name": "dsFlashSwapRouter",
      "inputs": [],
      "outputs": [
        {
          "name": "",
          "type": "address",
          "internalType": "address"
        }
      ],
      "stateMutability": "view"
    },
    {
      "type": "function",
      "name": "feeTo",
      "inputs": [],
      "outputs": [
        {
          "name": "",
          "type": "address",
          "internalType": "address"
        }
      ],
      "stateMutability": "view"
    },
    {
      "type": "function",
      "name": "feeToSetter",
      "inputs": [],
      "outputs": [
        {
          "name": "",
          "type": "address",
          "internalType": "address"
        }
      ],
      "stateMutability": "view"
    },
    {
      "type": "function",
      "name": "getPair",
      "inputs": [
        {
          "name": "",
          "type": "address",
          "internalType": "address"
        },
        {
          "name": "",
          "type": "address",
          "internalType": "address"
        }
      ],
      "outputs": [
        {
          "name": "",
          "type": "address",
          "internalType": "address"
        }
      ],
      "stateMutability": "view"
    },
    {
      "type": "function",
      "name": "setFeeTo",
      "inputs": [
        {
          "name": "_feeTo",
          "type": "address",
          "internalType": "address"
        }
      ],
      "outputs": [],
      "stateMutability": "nonpayable"
    },
    {
      "type": "function",
      "name": "setFeeToSetter",
      "inputs": [
        {
          "name": "_feeToSetter",
          "type": "address",
          "internalType": "address"
        }
      ],
      "outputs": [],
      "stateMutability": "nonpayable"
    },
    {
      "type": "event",
      "name": "PairCreated",
      "inputs": [
        {
          "name": "token0",
          "type": "address",
          "indexed": true,
          "internalType": "address"
        },
        {
          "name": "token1",
          "type": "address",
          "indexed": true,
          "internalType": "address"
        },
        {
          "name": "pair",
          "type": "address",
          "indexed": false,
          "internalType": "address"
        },
        {
          "name": "",
          "type": "uint256",
          "indexed": false,
          "internalType": "uint256"
        }
      ],
      "anonymous": false
    }
  ],
  "bytecode": {
    "object": "0x608060405234801561001057600080fd5b50604051612c14380380612c148339818101604052604081101561003357600080fd5b508051602090910151600180546001600160a01b039384166001600160a01b03199182161790915560048054939092169216919091179055612b9a8061007a6000396000f3fe608060405234801561001057600080fd5b506004361061009e5760003560e01c806357b84f8c1161006657806357b84f8c1461010e578063a2e74af614610116578063c9c653961461013e578063e6a439051461016c578063f46901ed1461019a5761009e565b8063017e7e58146100a3578063094b7415146100c75780631e3dd18b146100cf5780634a23514a146100ec578063574f2ba3146100f4575b600080fd5b6100ab6101c0565b604080516001600160a01b039092168252519081900360200190f35b6100ab6101cf565b6100ab600480360360208110156100e557600080fd5b50356101de565b6100ab610205565b6100fc610214565b60408051918252519081900360200190f35b6100fc61021a565b61013c6004803603602081101561012c57600080fd5b50356001600160a01b03166102ad565b005b6100ab6004803603604081101561015457600080fd5b506001600160a01b0381358116916020013516610325565b6100ab6004803603604081101561018257600080fd5b506001600160a01b0381358116916020013516610663565b61013c600480360360208110156101b057600080fd5b50356001600160a01b0316610689565b6000546001600160a01b031681565b6001546001600160a01b031681565b600381815481106101eb57fe5b6000918252602090912001546001600160a01b0316905081565b6004546001600160a01b031681565b60035490565b60405161022960208201610701565b6020820181038252601f19601f820116604052506040516020018082805190602001908083835b6020831061026f5780518252601f199092019160209182019101610250565b6001836020036101000a0380198251168184511680821785525050505050509050019150506040516020818303038152906040528051906020012081565b6001546001600160a01b03163314610303576040805162461bcd60e51b81526020600482015260146024820152732ab734b9bbb0b82b191d102327a92124a22222a760611b604482015290519081900360640190fd5b600180546001600160a01b0319166001600160a01b0392909216919091179055565b6000816001600160a01b0316836001600160a01b0316141561038e576040805162461bcd60e51b815260206004820152601e60248201527f556e697377617056323a204944454e544943414c5f4144445245535345530000604482015290519081900360640190fd5b600080836001600160a01b0316856001600160a01b0316106103b15783856103b4565b84845b90925090506001600160a01b038216610414576040805162461bcd60e51b815260206004820152601760248201527f556e697377617056323a205a45524f5f41444452455353000000000000000000604482015290519081900360640190fd5b6001600160a01b03828116600090815260026020908152604080832085851684529091529020541615610487576040805162461bcd60e51b8152602060048201526016602482015275556e697377617056323a20504149525f45584953545360501b604482015290519081900360640190fd5b60606040518060200161049990610701565b6020820181038252601f19601f8201166040525090506000838360405160200180836001600160a01b03166001600160a01b031660601b8152601401826001600160a01b03166001600160a01b031660601b815260140192505050604051602081830303815290604052805190602001209050808251602084016000f5600480546040805163c0c53b8b60e01b81526001600160a01b038981169482019490945287841660248201529183166044830152519297509087169163c0c53b8b9160648082019260009290919082900301818387803b15801561057957600080fd5b505af115801561058d573d6000803e3d6000fd5b505050506001600160a01b0384811660008181526002602081815260408084208987168086529083528185208054978d166001600160a01b031998891681179091559383528185208686528352818520805488168517905560038054600181018255958190527fc2575a0e9e593c00f959f8c92f12db2869c3395a3b0502d05e2516446f71f85b90950180549097168417909655925483519283529082015281517f0d3648bd0f6ba80134a33ba9275ac585d9d315f0ad8355cddefde31afa28d0e9929181900390910190a35050505092915050565b60026020908152600092835260408084209091529082529020546001600160a01b031681565b6001546001600160a01b031633146106df576040805162461bcd60e51b81526020600482015260146024820152732ab734b9bbb0b82b191d102327a92124a22222a760611b604482015290519081900360640190fd5b600080546001600160a01b0319166001600160a01b0392909216919091179055565b6124578061070f8339019056fe60806040526001600c5534801561001557600080fd5b5060405146908060526124058239604080519182900360520182208282018252600a8352692ab734b9bbb0b8102b1960b11b6020938401528151808301835260018152603160f81b908401528151808401919091527fbfcc8ef98ffbf7b6c3fec7bf5185b566b9863e35a9d83acd49ad6824b5969738818301527fc89efdaa54c0f20c7adf612882df0950f5a951637e0307cdcb4c672f298b8bc6606082015260808101949094523060a0808601919091528151808603909101815260c09094019052825192019190912060035550600580546001600160a01b03191633179055612300806101056000396000f3fe608060405234801561001057600080fd5b50600436106101c45760003560e01c806370a08231116100f9578063bc25cf7711610097578063d21220a711610071578063d21220a714610561578063d505accf14610569578063dd62ed3e146105ba578063fff6cae9146105e8576101c4565b8063bc25cf77146104fb578063c0c53b8b14610521578063c45a015514610559576101c4565b806389afcb44116100d357806389afcb441461048057806395d89b41146104bf578063a9059cbb146104c7578063ba9a7a56146104f3576101c4565b806370a082311461042c5780637464fc3d146104525780637ecebe001461045a576101c4565b806330adf81f116101665780634a23514a116101405780634a23514a146103ee5780635909c0d5146103f65780635a3d5493146103fe5780636a62784214610406576101c4565b806330adf81f146103c0578063313ce567146103c85780633644e515146103e6576101c4565b8063095ea7b3116101a2578063095ea7b31461030c5780630dfe16811461034c57806318160ddd1461037057806323b872dd1461038a576101c4565b8063022c0d9f146101c957806306fdde03146102575780630902f1ac146102d4575b600080fd5b610255600480360360808110156101df57600080fd5b8135916020810135916001600160a01b03604083013516919081019060808101606082013564010000000081111561021657600080fd5b82018360208201111561022857600080fd5b8035906020019184600183028401116401000000008311171561024a57600080fd5b5090925090506105f0565b005b61025f610b3f565b6040805160208082528351818301528351919283929083019185019080838360005b83811015610299578181015183820152602001610281565b50505050905090810190601f1680156102c65780820380516001836020036101000a031916815260200191505b509250505060405180910390f35b6102dc610b65565b604080516001600160701b03948516815292909316602083015263ffffffff168183015290519081900360600190f35b6103386004803603604081101561032257600080fd5b506001600160a01b038135169060200135610b8f565b604080519115158252519081900360200190f35b610354610ba6565b604080516001600160a01b039092168252519081900360200190f35b610378610bb5565b60408051918252519081900360200190f35b610338600480360360608110156103a057600080fd5b506001600160a01b03813581169160208101359091169060400135610bbb565b610378610c55565b6103d0610c79565b6040805160ff9092168252519081900360200190f35b610378610c7e565b610354610c84565b610378610c93565b610378610c99565b6103786004803603602081101561041c57600080fd5b50356001600160a01b0316610c9f565b6103786004803603602081101561044257600080fd5b50356001600160a01b0316610fab565b610378610fbd565b6103786004803603602081101561047057600080fd5b50356001600160a01b0316610fc3565b6104a66004803603602081101561049657600080fd5b50356001600160a01b0316610fd5565b6040805192835260208301919091528051918290030190f35b61025f61137b565b610338600480360360408110156104dd57600080fd5b506001600160a01b03813516906020013561139d565b6103786113aa565b6102556004803603602081101561051157600080fd5b50356001600160a01b03166113b0565b6102556004803603606081101561053757600080fd5b506001600160a01b03813581169160208101358216916040909101351661151b565b6103546115b0565b6103546115bf565b610255600480360360e081101561057f57600080fd5b506001600160a01b03813581169160208101359091169060408101359060608101359060ff6080820135169060a08101359060c001356115ce565b610378600480360360408110156105d057600080fd5b506001600160a01b03813581169160200135166117d0565b6102556117ed565b600c5460011461063b576040805162461bcd60e51b8152602060048201526011602482015270155b9a5cddd85c158c8e881313d0d2d151607a1b604482015290519081900360640190fd5b6000600c558415158061064e5750600084115b6106895760405162461bcd60e51b81526004018080602001828103825260258152602001806122126025913960400191505060405180910390fd5b600080610694610b65565b5091509150816001600160701b0316871080156106b95750806001600160701b031686105b6106f45760405162461bcd60e51b815260040180806020018281038252602181526020018061225b6021913960400191505060405180910390fd5b60065460075460009182916001600160a01b039182169190811690891682148015906107325750806001600160a01b0316896001600160a01b031614155b61077b576040805162461bcd60e51b8152602060048201526015602482015274556e697377617056323a20494e56414c49445f544f60581b604482015290519081900360640190fd5b8a1561078c5761078c828a8d61194f565b891561079d5761079d818a8c61194f565b861561085857886001600160a01b03166310d1e85c338d8d8c8c6040518663ffffffff1660e01b815260040180866001600160a01b03166001600160a01b03168152602001858152602001848152602001806020018281038252848482818152602001925080828437600081840152601f19601f8201169050808301925050509650505050505050600060405180830381600087803b15801561083f57600080fd5b505af1158015610853573d6000803e3d6000fd5b505050505b604080516370a0823160e01b815230600482015290516001600160a01b038416916370a08231916024808301926020929190829003018186803b15801561089e57600080fd5b505afa1580156108b2573d6000803e3d6000fd5b505050506040513d60208110156108c857600080fd5b5051604080516370a0823160e01b815230600482015290519195506001600160a01b038316916370a0823191602480820192602092909190829003018186803b15801561091457600080fd5b505afa158015610928573d6000803e3d6000fd5b505050506040513d602081101561093e57600080fd5b5051925060009150506001600160701b0385168a90038311610961576000610970565b89856001600160701b03160383035b9050600089856001600160701b031603831161098d57600061099c565b89856001600160701b03160383035b905060008211806109ad5750600081115b6109e85760405162461bcd60e51b81526004018080602001828103825260248152602001806122376024913960400191505060405180910390fd5b60006109fc856103e863ffffffff611ae916565b90506000610a12856103e863ffffffff611ae916565b9050610a1c611b4c565b15610a4a57610a3284600363ffffffff611ae916565b90910390610a4783600363ffffffff611ae916565b90035b610a79620f4240610a6d6001600160701b038b8116908b1663ffffffff611ae916565b9063ffffffff611ae916565b610a89838363ffffffff611ae916565b1015610acb576040805162461bcd60e51b815260206004820152600c60248201526b556e697377617056323a204b60a01b604482015290519081900360640190fd5b5050610ad984848888611b5e565b60408051838152602081018390528082018d9052606081018c905290516001600160a01b038b169133917fd78ad95fa46c994b6551d0da85fc275fe613ce37657fb8d5e3d130840159d8229181900360800190a350506001600c55505050505050505050565b6040518060400160405280600a8152602001692ab734b9bbb0b8102b1960b11b81525081565b6008546001600160701b0380821692600160701b830490911691600160e01b900463ffffffff1690565b6000610b9c338484611d23565b5060015b92915050565b6006546001600160a01b031681565b60005481565b6001600160a01b038316600090815260026020908152604080832033845290915281205460001914610c40576001600160a01b0384166000908152600260209081526040808320338452909152902054610c1b908363ffffffff611d8516565b6001600160a01b03851660009081526002602090815260408083203384529091529020555b610c4b848484611dd5565b5060019392505050565b7f6e71edae12b1b97f4d1f60370fef10105fa2faae0126114a169c64845d6126c981565b601281565b60035481565b600d546001600160a01b031681565b60095481565b600a5481565b6000600c54600114610cec576040805162461bcd60e51b8152602060048201526011602482015270155b9a5cddd85c158c8e881313d0d2d151607a1b604482015290519081900360640190fd5b6000600c81905580610cfc610b65565b50600654604080516370a0823160e01b815230600482015290519395509193506000926001600160a01b03909116916370a08231916024808301926020929190829003018186803b158015610d5057600080fd5b505afa158015610d64573d6000803e3d6000fd5b505050506040513d6020811015610d7a57600080fd5b5051600754604080516370a0823160e01b815230600482015290519293506000926001600160a01b03909216916370a0823191602480820192602092909190829003018186803b158015610dcd57600080fd5b505afa158015610de1573d6000803e3d6000fd5b505050506040513d6020811015610df757600080fd5b505190506000610e16836001600160701b03871663ffffffff611d8516565b90506000610e33836001600160701b03871663ffffffff611d8516565b90506000610e418787611e8f565b60005490915080610e8a57610e766103e8610e6a610e65878763ffffffff611ae916565b611fed565b9063ffffffff611d8516565b9850610e8560006103e861203f565b610ed9565b610ed66001600160701b038916610ea7868463ffffffff611ae916565b81610eae57fe5b046001600160701b038916610ec9868563ffffffff611ae916565b81610ed057fe5b046120d5565b98505b60008911610f185760405162461bcd60e51b81526004018080602001828103825260288152602001806122a46028913960400191505060405180910390fd5b610f228a8a61203f565b610f2e86868a8a611b5e565b8115610f5e57600854610f5a906001600160701b0380821691600160701b90041663ffffffff611ae916565b600b555b6040805185815260208101859052815133927f4c209b5fc8ad50758f13e2e1088ba56a560dff690a1c6fef26394f4c03821c4f928290030190a250506001600c5550949695505050505050565b60016020526000908152604090205481565b600b5481565b60046020526000908152604090205481565b600080600c54600114611023576040805162461bcd60e51b8152602060048201526011602482015270155b9a5cddd85c158c8e881313d0d2d151607a1b604482015290519081900360640190fd5b6000600c81905580611033610b65565b50600654600754604080516370a0823160e01b815230600482015290519496509294506001600160a01b039182169391169160009184916370a08231916024808301926020929190829003018186803b15801561108f57600080fd5b505afa1580156110a3573d6000803e3d6000fd5b505050506040513d60208110156110b957600080fd5b5051604080516370a0823160e01b815230600482015290519192506000916001600160a01b038516916370a08231916024808301926020929190829003018186803b15801561110757600080fd5b505afa15801561111b573d6000803e3d6000fd5b505050506040513d602081101561113157600080fd5b5051306000908152600160205260408120549192506111508888611e8f565b60005490915080611167848763ffffffff611ae916565b8161116e57fe5b049a5080611182848663ffffffff611ae916565b8161118957fe5b04995060008b11801561119c575060008a115b6111d75760405162461bcd60e51b815260040180806020018281038252602881526020018061227c6028913960400191505060405180910390fd5b6111e130846120ed565b6111ec878d8d61194f565b6111f7868d8c61194f565b604080516370a0823160e01b815230600482015290516001600160a01b038916916370a08231916024808301926020929190829003018186803b15801561123d57600080fd5b505afa158015611251573d6000803e3d6000fd5b505050506040513d602081101561126757600080fd5b5051604080516370a0823160e01b815230600482015290519196506001600160a01b038816916370a0823191602480820192602092909190829003018186803b1580156112b357600080fd5b505afa1580156112c7573d6000803e3d6000fd5b505050506040513d60208110156112dd57600080fd5b505193506112ed85858b8b611b5e565b811561131d57600854611319906001600160701b0380821691600160701b90041663ffffffff611ae916565b600b555b604080518c8152602081018c905281516001600160a01b038f169233927fdccd412f0b1252819cb1fd330b93224ca42612892bb3f4f789976e6d81936496929081900390910190a35050505050505050506001600c81905550915091565b604051806040016040528060068152602001652aa72496ab1960d11b81525081565b6000610b9c338484611dd5565b6103e881565b600c546001146113fb576040805162461bcd60e51b8152602060048201526011602482015270155b9a5cddd85c158c8e881313d0d2d151607a1b604482015290519081900360640190fd5b6000600c55600654600754600854604080516370a0823160e01b815230600482015290516001600160a01b0394851694909316926114aa92859287926114a5926001600160701b03169185916370a0823191602480820192602092909190829003018186803b15801561146d57600080fd5b505afa158015611481573d6000803e3d6000fd5b505050506040513d602081101561149757600080fd5b50519063ffffffff611d8516565b61194f565b600854604080516370a0823160e01b8152306004820152905161151192849287926114a592600160701b90046001600160701b0316916001600160a01b038616916370a0823191602480820192602092909190829003018186803b15801561146d57600080fd5b50506001600c5550565b6005546001600160a01b03163314611571576040805162461bcd60e51b81526020600482015260146024820152732ab734b9bbb0b82b191d102327a92124a22222a760611b604482015290519081900360640190fd5b600680546001600160a01b039485166001600160a01b0319918216179091556007805493851693821693909317909255600d8054919093169116179055565b6005546001600160a01b031681565b6007546001600160a01b031681565b42841015611618576040805162461bcd60e51b8152602060048201526012602482015271155b9a5cddd85c158c8e881156141254915160721b604482015290519081900360640190fd5b6003546001600160a01b0380891660008181526004602090815260408083208054600180820190925582517f6e71edae12b1b97f4d1f60370fef10105fa2faae0126114a169c64845d6126c98186015280840196909652958d166060860152608085018c905260a085019590955260c08085018b90528151808603909101815260e08501825280519083012061190160f01b6101008601526101028501969096526101228085019690965280518085039096018652610142840180825286519683019690962095839052610162840180825286905260ff89166101828501526101a284018890526101c28401879052519193926101e280820193601f1981019281900390910190855afa158015611733573d6000803e3d6000fd5b5050604051601f1901519150506001600160a01b038116158015906117695750886001600160a01b0316816001600160a01b0316145b6117ba576040805162461bcd60e51b815260206004820152601c60248201527f556e697377617056323a20494e56414c49445f5349474e415455524500000000604482015290519081900360640190fd5b6117c5898989611d23565b505050505050505050565b600260209081526000928352604080842090915290825290205481565b600c54600114611838576040805162461bcd60e51b8152602060048201526011602482015270155b9a5cddd85c158c8e881313d0d2d151607a1b604482015290519081900360640190fd5b6000600c55600654604080516370a0823160e01b81523060048201529051611948926001600160a01b0316916370a08231916024808301926020929190829003018186803b15801561188957600080fd5b505afa15801561189d573d6000803e3d6000fd5b505050506040513d60208110156118b357600080fd5b5051600754604080516370a0823160e01b815230600482015290516001600160a01b03909216916370a0823191602480820192602092909190829003018186803b15801561190057600080fd5b505afa158015611914573d6000803e3d6000fd5b505050506040513d602081101561192a57600080fd5b50516008546001600160701b0380821691600160701b900416611b5e565b6001600c55565b604080518082018252601981527f7472616e7366657228616464726573732c75696e74323536290000000000000060209182015281516001600160a01b0385811660248301526044808301869052845180840390910181526064909201845291810180516001600160e01b031663a9059cbb60e01b1781529251815160009460609489169392918291908083835b602083106119fc5780518252601f1990920191602091820191016119dd565b6001836020036101000a0380198251168184511680821785525050505050509050019150506000604051808303816000865af19150503d8060008114611a5e576040519150601f19603f3d011682016040523d82523d6000602084013e611a63565b606091505b5091509150818015611a91575080511580611a915750808060200190516020811015611a8e57600080fd5b50515b611ae2576040805162461bcd60e51b815260206004820152601a60248201527f556e697377617056323a205452414e534645525f4641494c4544000000000000604482015290519081900360640190fd5b5050505050565b6000811580611b0457505080820282828281611b0157fe5b04145b610ba0576040805162461bcd60e51b815260206004820152601460248201527364732d6d6174682d6d756c2d6f766572666c6f7760601b604482015290519081900360640190fd5b600d546001600160a01b031633141590565b6001600160701b038411801590611b7c57506001600160701b038311155b611bc3576040805162461bcd60e51b8152602060048201526013602482015272556e697377617056323a204f564552464c4f5760681b604482015290519081900360640190fd5b60085463ffffffff42811691600160e01b90048116820390811615801590611bf357506001600160701b03841615155b8015611c0757506001600160701b03831615155b15611c78578063ffffffff16611c3585611c208661218b565b6001600160e01b03169063ffffffff61219d16565b600980546001600160e01b03929092169290920201905563ffffffff8116611c6084611c208761218b565b600a80546001600160e01b0392909216929092020190555b600880546dffffffffffffffffffffffffffff19166001600160701b03888116919091176dffffffffffffffffffffffffffff60701b1916600160701b8883168102919091176001600160e01b0316600160e01b63ffffffff871602179283905560408051848416815291909304909116602082015281517f1c411e9a96e071241c2f21f7726b17ae89e3cab4c78be50e062b03a9fffbbad1929181900390910190a1505050505050565b6001600160a01b03808416600081815260026020908152604080832094871680845294825291829020859055815185815291517f8c5be1e5ebec7d5bd14f71427d1e84f3dd0314c0f7b2291e5b200ac8c7c3b9259281900390910190a3505050565b80820382811115610ba0576040805162461bcd60e51b815260206004820152601560248201527464732d6d6174682d7375622d756e646572666c6f7760581b604482015290519081900360640190fd5b6001600160a01b038316600090815260016020526040902054611dfe908263ffffffff611d8516565b6001600160a01b038085166000908152600160205260408082209390935590841681522054611e33908263ffffffff6121c216565b6001600160a01b0380841660008181526001602090815260409182902094909455805185815290519193928716927fddf252ad1be2c89b69c2b068fc378daa952ba7f163c4a11628f55a4df523b3ef92918290030190a3505050565b600080600560009054906101000a90046001600160a01b03166001600160a01b031663017e7e586040518163ffffffff1660e01b815260040160206040518083038186803b158015611ee057600080fd5b505afa158015611ef4573d6000803e3d6000fd5b505050506040513d6020811015611f0a57600080fd5b5051600b546001600160a01b038216158015945091925090611fd9578015611fd4576000611f4d610e656001600160701b0388811690881663ffffffff611ae916565b90506000611f5a83611fed565b905080821115611fd1576000611f88611f79848463ffffffff611d8516565b6000549063ffffffff611ae916565b90506000611fad83611fa186600563ffffffff611ae916565b9063ffffffff6121c216565b90506000818381611fba57fe5b0490508015611fcd57611fcd878261203f565b5050505b50505b611fe5565b8015611fe5576000600b555b505092915050565b60006003821115612030575080600160028204015b8181101561202a5780915060028182858161201957fe5b04018161202257fe5b049050612002565b5061203a565b811561203a575060015b919050565b600054612052908263ffffffff6121c216565b60009081556001600160a01b03831681526001602052604090205461207d908263ffffffff6121c216565b6001600160a01b03831660008181526001602090815260408083209490945583518581529351929391927fddf252ad1be2c89b69c2b068fc378daa952ba7f163c4a11628f55a4df523b3ef9281900390910190a35050565b60008183106120e457816120e6565b825b9392505050565b6001600160a01b038216600090815260016020526040902054612116908263ffffffff611d8516565b6001600160a01b03831660009081526001602052604081209190915554612143908263ffffffff611d8516565b60009081556040805183815290516001600160a01b038516917fddf252ad1be2c89b69c2b068fc378daa952ba7f163c4a11628f55a4df523b3ef919081900360200190a35050565b6001600160701b0316600160701b0290565b60006001600160701b0382166001600160e01b038416816121ba57fe5b049392505050565b80820182811015610ba0576040805162461bcd60e51b815260206004820152601460248201527364732d6d6174682d6164642d6f766572666c6f7760601b604482015290519081900360640190fdfe556e697377617056323a20494e53554646494349454e545f4f55545055545f414d4f554e54556e697377617056323a20494e53554646494349454e545f494e5055545f414d4f554e54556e697377617056323a20494e53554646494349454e545f4c4951554944495459556e697377617056323a20494e53554646494349454e545f4c49515549444954595f4255524e4544556e697377617056323a20494e53554646494349454e545f4c49515549444954595f4d494e544544a265627a7a72315820f4590df03bc51489d34eadca89a3cf9df1fcb8fc4810e8144183ca1762600e9864736f6c63430005100032454950373132446f6d61696e28737472696e67206e616d652c737472696e672076657273696f6e2c75696e7432353620636861696e49642c6164647265737320766572696679696e67436f6e747261637429a265627a7a72315820b4fa3c3bb142d96cb338bd599723a6700ae7e7bbd73ef261376bf1ef269e8a9764736f6c63430005100032",
    "linkReferences": {}
  },
  "methodIdentifiers": {
    "PAIR_INIT_CODE_HASH()": "57b84f8c",
    "allPairs(uint256)": "1e3dd18b",
    "allPairsLength()": "574f2ba3",
    "createPair(address,address)": "c9c65396",
    "dsFlashSwapRouter()": "4a23514a",
    "feeTo()": "017e7e58",
    "feeToSetter()": "094b7415",
    "getPair(address,address)": "e6a43905",
    "setFeeTo(address)": "f46901ed",
    "setFeeToSetter(address)": "a2e74af6"
  },
  "id": 1
}