{
  "abi": [
    {
      "type": "constructor",
      "inputs": [
        {
          "name": "_factory",
          "type": "address",
          "internalType": "address"
        },
        {
          "name": "_WETH",
          "type": "address",
          "internalType": "address"
        },
        {
          "name": "_dsSwapContract",
          "type": "address",
          "internalType": "address"
        }
      ],
      "stateMutability": "nonpayable"
    },
    {
      "type": "receive",
      "stateMutability": "payable"
    },
    {
      "type": "function",
      "name": "WETH",
      "inputs": [],
      "outputs": [
        {
          "name": "",
          "type": "address",
          "internalType": "address"
        }
      ],
      "stateMutability": "view"
    },
    {
      "type": "function",
      "name": "addLiquidity",
      "inputs": [
        {
          "name": "tokenA",
          "type": "address",
          "internalType": "address"
        },
        {
          "name": "tokenB",
          "type": "address",
          "internalType": "address"
        },
        {
          "name": "amountADesired",
          "type": "uint256",
          "internalType": "uint256"
        },
        {
          "name": "amountBDesired",
          "type": "uint256",
          "internalType": "uint256"
        },
        {
          "name": "amountAMin",
          "type": "uint256",
          "internalType": "uint256"
        },
        {
          "name": "amountBMin",
          "type": "uint256",
          "internalType": "uint256"
        },
        {
          "name": "to",
          "type": "address",
          "internalType": "address"
        },
        {
          "name": "deadline",
          "type": "uint256",
          "internalType": "uint256"
        }
      ],
      "outputs": [
        {
          "name": "amountA",
          "type": "uint256",
          "internalType": "uint256"
        },
        {
          "name": "amountB",
          "type": "uint256",
          "internalType": "uint256"
        },
        {
          "name": "liquidity",
          "type": "uint256",
          "internalType": "uint256"
        }
      ],
      "stateMutability": "nonpayable"
    },
    {
      "type": "function",
      "name": "addLiquidityETH",
      "inputs": [
        {
          "name": "token",
          "type": "address",
          "internalType": "address"
        },
        {
          "name": "amountTokenDesired",
          "type": "uint256",
          "internalType": "uint256"
        },
        {
          "name": "amountTokenMin",
          "type": "uint256",
          "internalType": "uint256"
        },
        {
          "name": "amountETHMin",
          "type": "uint256",
          "internalType": "uint256"
        },
        {
          "name": "to",
          "type": "address",
          "internalType": "address"
        },
        {
          "name": "deadline",
          "type": "uint256",
          "internalType": "uint256"
        }
      ],
      "outputs": [
        {
          "name": "amountToken",
          "type": "uint256",
          "internalType": "uint256"
        },
        {
          "name": "amountETH",
          "type": "uint256",
          "internalType": "uint256"
        },
        {
          "name": "liquidity",
          "type": "uint256",
          "internalType": "uint256"
        }
      ],
      "stateMutability": "payable"
    },
    {
      "type": "function",
      "name": "dsSwapContract",
      "inputs": [],
      "outputs": [
        {
          "name": "",
          "type": "address",
          "internalType": "address"
        }
      ],
      "stateMutability": "view"
    },
    {
      "type": "function",
      "name": "factory",
      "inputs": [],
      "outputs": [
        {
          "name": "",
          "type": "address",
          "internalType": "address"
        }
      ],
      "stateMutability": "view"
    },
    {
      "type": "function",
      "name": "getAmountIn",
      "inputs": [
        {
          "name": "amountOut",
          "type": "uint256",
          "internalType": "uint256"
        },
        {
          "name": "reserveIn",
          "type": "uint256",
          "internalType": "uint256"
        },
        {
          "name": "reserveOut",
          "type": "uint256",
          "internalType": "uint256"
        }
      ],
      "outputs": [
        {
          "name": "amountIn",
          "type": "uint256",
          "internalType": "uint256"
        }
      ],
      "stateMutability": "pure"
    },
    {
      "type": "function",
      "name": "getAmountOut",
      "inputs": [
        {
          "name": "amountIn",
          "type": "uint256",
          "internalType": "uint256"
        },
        {
          "name": "reserveIn",
          "type": "uint256",
          "internalType": "uint256"
        },
        {
          "name": "reserveOut",
          "type": "uint256",
          "internalType": "uint256"
        }
      ],
      "outputs": [
        {
          "name": "amountOut",
          "type": "uint256",
          "internalType": "uint256"
        }
      ],
      "stateMutability": "pure"
    },
    {
      "type": "function",
      "name": "getAmountsIn",
      "inputs": [
        {
          "name": "amountOut",
          "type": "uint256",
          "internalType": "uint256"
        },
        {
          "name": "path",
          "type": "address[]",
          "internalType": "address[]"
        }
      ],
      "outputs": [
        {
          "name": "amounts",
          "type": "uint256[]",
          "internalType": "uint256[]"
        }
      ],
      "stateMutability": "view"
    },
    {
      "type": "function",
      "name": "getAmountsOut",
      "inputs": [
        {
          "name": "amountIn",
          "type": "uint256",
          "internalType": "uint256"
        },
        {
          "name": "path",
          "type": "address[]",
          "internalType": "address[]"
        }
      ],
      "outputs": [
        {
          "name": "amounts",
          "type": "uint256[]",
          "internalType": "uint256[]"
        }
      ],
      "stateMutability": "view"
    },
    {
      "type": "function",
      "name": "quote",
      "inputs": [
        {
          "name": "amountA",
          "type": "uint256",
          "internalType": "uint256"
        },
        {
          "name": "reserveA",
          "type": "uint256",
          "internalType": "uint256"
        },
        {
          "name": "reserveB",
          "type": "uint256",
          "internalType": "uint256"
        }
      ],
      "outputs": [
        {
          "name": "amountB",
          "type": "uint256",
          "internalType": "uint256"
        }
      ],
      "stateMutability": "pure"
    },
    {
      "type": "function",
      "name": "removeLiquidity",
      "inputs": [
        {
          "name": "tokenA",
          "type": "address",
          "internalType": "address"
        },
        {
          "name": "tokenB",
          "type": "address",
          "internalType": "address"
        },
        {
          "name": "liquidity",
          "type": "uint256",
          "internalType": "uint256"
        },
        {
          "name": "amountAMin",
          "type": "uint256",
          "internalType": "uint256"
        },
        {
          "name": "amountBMin",
          "type": "uint256",
          "internalType": "uint256"
        },
        {
          "name": "to",
          "type": "address",
          "internalType": "address"
        },
        {
          "name": "deadline",
          "type": "uint256",
          "internalType": "uint256"
        }
      ],
      "outputs": [
        {
          "name": "amountA",
          "type": "uint256",
          "internalType": "uint256"
        },
        {
          "name": "amountB",
          "type": "uint256",
          "internalType": "uint256"
        }
      ],
      "stateMutability": "nonpayable"
    },
    {
      "type": "function",
      "name": "removeLiquidityETH",
      "inputs": [
        {
          "name": "token",
          "type": "address",
          "internalType": "address"
        },
        {
          "name": "liquidity",
          "type": "uint256",
          "internalType": "uint256"
        },
        {
          "name": "amountTokenMin",
          "type": "uint256",
          "internalType": "uint256"
        },
        {
          "name": "amountETHMin",
          "type": "uint256",
          "internalType": "uint256"
        },
        {
          "name": "to",
          "type": "address",
          "internalType": "address"
        },
        {
          "name": "deadline",
          "type": "uint256",
          "internalType": "uint256"
        }
      ],
      "outputs": [
        {
          "name": "amountToken",
          "type": "uint256",
          "internalType": "uint256"
        },
        {
          "name": "amountETH",
          "type": "uint256",
          "internalType": "uint256"
        }
      ],
      "stateMutability": "nonpayable"
    },
    {
      "type": "function",
      "name": "removeLiquidityETHSupportingFeeOnTransferTokens",
      "inputs": [
        {
          "name": "token",
          "type": "address",
          "internalType": "address"
        },
        {
          "name": "liquidity",
          "type": "uint256",
          "internalType": "uint256"
        },
        {
          "name": "amountTokenMin",
          "type": "uint256",
          "internalType": "uint256"
        },
        {
          "name": "amountETHMin",
          "type": "uint256",
          "internalType": "uint256"
        },
        {
          "name": "to",
          "type": "address",
          "internalType": "address"
        },
        {
          "name": "deadline",
          "type": "uint256",
          "internalType": "uint256"
        }
      ],
      "outputs": [
        {
          "name": "amountETH",
          "type": "uint256",
          "internalType": "uint256"
        }
      ],
      "stateMutability": "nonpayable"
    },
    {
      "type": "function",
      "name": "removeLiquidityETHWithPermit",
      "inputs": [
        {
          "name": "token",
          "type": "address",
          "internalType": "address"
        },
        {
          "name": "liquidity",
          "type": "uint256",
          "internalType": "uint256"
        },
        {
          "name": "amountTokenMin",
          "type": "uint256",
          "internalType": "uint256"
        },
        {
          "name": "amountETHMin",
          "type": "uint256",
          "internalType": "uint256"
        },
        {
          "name": "to",
          "type": "address",
          "internalType": "address"
        },
        {
          "name": "deadline",
          "type": "uint256",
          "internalType": "uint256"
        },
        {
          "name": "approveMax",
          "type": "bool",
          "internalType": "bool"
        },
        {
          "name": "v",
          "type": "uint8",
          "internalType": "uint8"
        },
        {
          "name": "r",
          "type": "bytes32",
          "internalType": "bytes32"
        },
        {
          "name": "s",
          "type": "bytes32",
          "internalType": "bytes32"
        }
      ],
      "outputs": [
        {
          "name": "amountToken",
          "type": "uint256",
          "internalType": "uint256"
        },
        {
          "name": "amountETH",
          "type": "uint256",
          "internalType": "uint256"
        }
      ],
      "stateMutability": "nonpayable"
    },
    {
      "type": "function",
      "name": "removeLiquidityETHWithPermitSupportingFeeOnTransferTokens",
      "inputs": [
        {
          "name": "token",
          "type": "address",
          "internalType": "address"
        },
        {
          "name": "liquidity",
          "type": "uint256",
          "internalType": "uint256"
        },
        {
          "name": "amountTokenMin",
          "type": "uint256",
          "internalType": "uint256"
        },
        {
          "name": "amountETHMin",
          "type": "uint256",
          "internalType": "uint256"
        },
        {
          "name": "to",
          "type": "address",
          "internalType": "address"
        },
        {
          "name": "deadline",
          "type": "uint256",
          "internalType": "uint256"
        },
        {
          "name": "approveMax",
          "type": "bool",
          "internalType": "bool"
        },
        {
          "name": "v",
          "type": "uint8",
          "internalType": "uint8"
        },
        {
          "name": "r",
          "type": "bytes32",
          "internalType": "bytes32"
        },
        {
          "name": "s",
          "type": "bytes32",
          "internalType": "bytes32"
        }
      ],
      "outputs": [
        {
          "name": "amountETH",
          "type": "uint256",
          "internalType": "uint256"
        }
      ],
      "stateMutability": "nonpayable"
    },
    {
      "type": "function",
      "name": "removeLiquidityWithPermit",
      "inputs": [
        {
          "name": "tokenA",
          "type": "address",
          "internalType": "address"
        },
        {
          "name": "tokenB",
          "type": "address",
          "internalType": "address"
        },
        {
          "name": "liquidity",
          "type": "uint256",
          "internalType": "uint256"
        },
        {
          "name": "amountAMin",
          "type": "uint256",
          "internalType": "uint256"
        },
        {
          "name": "amountBMin",
          "type": "uint256",
          "internalType": "uint256"
        },
        {
          "name": "to",
          "type": "address",
          "internalType": "address"
        },
        {
          "name": "deadline",
          "type": "uint256",
          "internalType": "uint256"
        },
        {
          "name": "approveMax",
          "type": "bool",
          "internalType": "bool"
        },
        {
          "name": "v",
          "type": "uint8",
          "internalType": "uint8"
        },
        {
          "name": "r",
          "type": "bytes32",
          "internalType": "bytes32"
        },
        {
          "name": "s",
          "type": "bytes32",
          "internalType": "bytes32"
        }
      ],
      "outputs": [
        {
          "name": "amountA",
          "type": "uint256",
          "internalType": "uint256"
        },
        {
          "name": "amountB",
          "type": "uint256",
          "internalType": "uint256"
        }
      ],
      "stateMutability": "nonpayable"
    },
    {
      "type": "function",
      "name": "swapETHForExactTokens",
      "inputs": [
        {
          "name": "amountOut",
          "type": "uint256",
          "internalType": "uint256"
        },
        {
          "name": "path",
          "type": "address[]",
          "internalType": "address[]"
        },
        {
          "name": "to",
          "type": "address",
          "internalType": "address"
        },
        {
          "name": "deadline",
          "type": "uint256",
          "internalType": "uint256"
        }
      ],
      "outputs": [
        {
          "name": "amounts",
          "type": "uint256[]",
          "internalType": "uint256[]"
        }
      ],
      "stateMutability": "payable"
    },
    {
      "type": "function",
      "name": "swapExactETHForTokens",
      "inputs": [
        {
          "name": "amountOutMin",
          "type": "uint256",
          "internalType": "uint256"
        },
        {
          "name": "path",
          "type": "address[]",
          "internalType": "address[]"
        },
        {
          "name": "to",
          "type": "address",
          "internalType": "address"
        },
        {
          "name": "deadline",
          "type": "uint256",
          "internalType": "uint256"
        }
      ],
      "outputs": [
        {
          "name": "amounts",
          "type": "uint256[]",
          "internalType": "uint256[]"
        }
      ],
      "stateMutability": "payable"
    },
    {
      "type": "function",
      "name": "swapExactETHForTokensSupportingFeeOnTransferTokens",
      "inputs": [
        {
          "name": "amountOutMin",
          "type": "uint256",
          "internalType": "uint256"
        },
        {
          "name": "path",
          "type": "address[]",
          "internalType": "address[]"
        },
        {
          "name": "to",
          "type": "address",
          "internalType": "address"
        },
        {
          "name": "deadline",
          "type": "uint256",
          "internalType": "uint256"
        }
      ],
      "outputs": [],
      "stateMutability": "payable"
    },
    {
      "type": "function",
      "name": "swapExactTokensForETH",
      "inputs": [
        {
          "name": "amountIn",
          "type": "uint256",
          "internalType": "uint256"
        },
        {
          "name": "amountOutMin",
          "type": "uint256",
          "internalType": "uint256"
        },
        {
          "name": "path",
          "type": "address[]",
          "internalType": "address[]"
        },
        {
          "name": "to",
          "type": "address",
          "internalType": "address"
        },
        {
          "name": "deadline",
          "type": "uint256",
          "internalType": "uint256"
        }
      ],
      "outputs": [
        {
          "name": "amounts",
          "type": "uint256[]",
          "internalType": "uint256[]"
        }
      ],
      "stateMutability": "nonpayable"
    },
    {
      "type": "function",
      "name": "swapExactTokensForETHSupportingFeeOnTransferTokens",
      "inputs": [
        {
          "name": "amountIn",
          "type": "uint256",
          "internalType": "uint256"
        },
        {
          "name": "amountOutMin",
          "type": "uint256",
          "internalType": "uint256"
        },
        {
          "name": "path",
          "type": "address[]",
          "internalType": "address[]"
        },
        {
          "name": "to",
          "type": "address",
          "internalType": "address"
        },
        {
          "name": "deadline",
          "type": "uint256",
          "internalType": "uint256"
        }
      ],
      "outputs": [],
      "stateMutability": "nonpayable"
    },
    {
      "type": "function",
      "name": "swapExactTokensForTokens",
      "inputs": [
        {
          "name": "amountIn",
          "type": "uint256",
          "internalType": "uint256"
        },
        {
          "name": "amountOutMin",
          "type": "uint256",
          "internalType": "uint256"
        },
        {
          "name": "path",
          "type": "address[]",
          "internalType": "address[]"
        },
        {
          "name": "to",
          "type": "address",
          "internalType": "address"
        },
        {
          "name": "deadline",
          "type": "uint256",
          "internalType": "uint256"
        }
      ],
      "outputs": [
        {
          "name": "amounts",
          "type": "uint256[]",
          "internalType": "uint256[]"
        }
      ],
      "stateMutability": "nonpayable"
    },
    {
      "type": "function",
      "name": "swapExactTokensForTokensSupportingFeeOnTransferTokens",
      "inputs": [
        {
          "name": "amountIn",
          "type": "uint256",
          "internalType": "uint256"
        },
        {
          "name": "amountOutMin",
          "type": "uint256",
          "internalType": "uint256"
        },
        {
          "name": "path",
          "type": "address[]",
          "internalType": "address[]"
        },
        {
          "name": "to",
          "type": "address",
          "internalType": "address"
        },
        {
          "name": "deadline",
          "type": "uint256",
          "internalType": "uint256"
        }
      ],
      "outputs": [],
      "stateMutability": "nonpayable"
    },
    {
      "type": "function",
      "name": "swapTokensForExactETH",
      "inputs": [
        {
          "name": "amountOut",
          "type": "uint256",
          "internalType": "uint256"
        },
        {
          "name": "amountInMax",
          "type": "uint256",
          "internalType": "uint256"
        },
        {
          "name": "path",
          "type": "address[]",
          "internalType": "address[]"
        },
        {
          "name": "to",
          "type": "address",
          "internalType": "address"
        },
        {
          "name": "deadline",
          "type": "uint256",
          "internalType": "uint256"
        }
      ],
      "outputs": [
        {
          "name": "amounts",
          "type": "uint256[]",
          "internalType": "uint256[]"
        }
      ],
      "stateMutability": "nonpayable"
    },
    {
      "type": "function",
      "name": "swapTokensForExactTokens",
      "inputs": [
        {
          "name": "amountOut",
          "type": "uint256",
          "internalType": "uint256"
        },
        {
          "name": "amountInMax",
          "type": "uint256",
          "internalType": "uint256"
        },
        {
          "name": "path",
          "type": "address[]",
          "internalType": "address[]"
        },
        {
          "name": "to",
          "type": "address",
          "internalType": "address"
        },
        {
          "name": "deadline",
          "type": "uint256",
          "internalType": "uint256"
        }
      ],
      "outputs": [
        {
          "name": "amounts",
          "type": "uint256[]",
          "internalType": "uint256[]"
        }
      ],
      "stateMutability": "nonpayable"
    }
  ],
  "bytecode": {
    "object": "0x60c060405234801561001057600080fd5b50604051620049fc380380620049fc8339818101604052606081101561003557600080fd5b5080516020820151604090920151606082811b6001600160601b03199081166080529084901b1660a052600080546001600160a01b0319166001600160a01b0392831617815591811692169061485990620001a390398061017a5280610d145280610d4f5280610e46528061106d5280611403528061156d52806119345280611a2e5280611ae45280611bb25280611cfc5280611d845280611fcd528061204852806120f752806121c3528061225852806122cc52806127dc5280612a4f5280612aa55280612ad95280612b4d5280612ced5280612e345280612ebc525080610ed45280610fb45280611133528061117452806112af5280611491528061154b52806116bb5280611c455280611db65280611f1952806122fe5280612557528061274f528061278752806127ba52806129275280612a835280612d805280612eee528061379352806137d65280613aba5280613c3952806140695280614117528061419752506148596000f3fe60806040526004361061016a5760003560e01c80638803dbee116100d1578063c45a01551161008a578063ded9382a11610064578063ded9382a14610b0a578063e8e3370014610b7d578063f305d71914610bfd578063fb3bdb4114610c43576101a3565b8063c45a015514610a2b578063caa0c28c14610a40578063d06ca61f14610a55576101a3565b80638803dbee146107fa578063ad5c464814610890578063ad615dec146108c1578063af2979eb146108f7578063b6f9de951461094a578063baa2abde146109ce576101a3565b80634a25d94a116101235780634a25d94a1461050b5780635b0d5984146105a15780635c11d79514610614578063791ac947146106aa5780637ff36ab51461074057806385f8c259146107c4576101a3565b806302751cec146101a8578063054d50d41461021457806318cbafe51461025c5780631f00ca74146103425780632195995c146103f757806338ed173914610475576101a3565b366101a357336001600160a01b037f000000000000000000000000000000000000000000000000000000000000000016146101a157fe5b005b600080fd5b3480156101b457600080fd5b506101fb600480360360c08110156101cb57600080fd5b506001600160a01b0381358116916020810135916040820135916060810135916080820135169060a00135610cc7565b6040805192835260208301919091528051918290030190f35b34801561022057600080fd5b5061024a6004803603606081101561023757600080fd5b5080359060208101359060400135610de1565b60408051918252519081900360200190f35b34801561026857600080fd5b506102f2600480360360a081101561027f57600080fd5b813591602081013591810190606081016040820135600160201b8111156102a557600080fd5b8201836020820111156102b757600080fd5b803590602001918460208302840111600160201b831117156102d857600080fd5b91935091506001600160a01b038135169060200135610df6565b60408051602080825283518183015283519192839290830191858101910280838360005b8381101561032e578181015183820152602001610316565b505050509050019250505060405180910390f35b34801561034e57600080fd5b506102f26004803603604081101561036557600080fd5b81359190810190604081016020820135600160201b81111561038657600080fd5b82018360208201111561039857600080fd5b803590602001918460208302840111600160201b831117156103b957600080fd5b91908080602002602001604051908101604052809392919081815260200183836020028082843760009201919091525092955061112c945050505050565b34801561040357600080fd5b506101fb600480360361016081101561041b57600080fd5b506001600160a01b038135811691602081013582169160408201359160608101359160808201359160a08101359091169060c08101359060e081013515159060ff610100820135169061012081013590610140013561116a565b34801561048157600080fd5b506102f2600480360360a081101561049857600080fd5b813591602081013591810190606081016040820135600160201b8111156104be57600080fd5b8201836020820111156104d057600080fd5b803590602001918460208302840111600160201b831117156104f157600080fd5b91935091506001600160a01b038135169060200135611264565b34801561051757600080fd5b506102f2600480360360a081101561052e57600080fd5b813591602081013591810190606081016040820135600160201b81111561055457600080fd5b82018360208201111561056657600080fd5b803590602001918460208302840111600160201b8311171561058757600080fd5b91935091506001600160a01b0381351690602001356113b3565b3480156105ad57600080fd5b5061024a60048036036101408110156105c557600080fd5b506001600160a01b0381358116916020810135916040820135916060810135916080820135169060a08101359060c081013515159060ff60e08201351690610100810135906101200135611543565b34801561062057600080fd5b506101a1600480360360a081101561063757600080fd5b813591602081013591810190606081016040820135600160201b81111561065d57600080fd5b82018360208201111561066f57600080fd5b803590602001918460208302840111600160201b8311171561069057600080fd5b91935091506001600160a01b038135169060200135611651565b3480156106b657600080fd5b506101a1600480360360a08110156106cd57600080fd5b813591602081013591810190606081016040820135600160201b8111156106f357600080fd5b82018360208201111561070557600080fd5b803590602001918460208302840111600160201b8311171561072657600080fd5b91935091506001600160a01b0381351690602001356118e6565b6102f26004803603608081101561075657600080fd5b81359190810190604081016020820135600160201b81111561077757600080fd5b82018360208201111561078957600080fd5b803590602001918460208302840111600160201b831117156107aa57600080fd5b91935091506001600160a01b038135169060200135611b6a565b3480156107d057600080fd5b5061024a600480360360608110156107e757600080fd5b5080359060208101359060400135611ec1565b34801561080657600080fd5b506102f2600480360360a081101561081d57600080fd5b813591602081013591810190606081016040820135600160201b81111561084357600080fd5b82018360208201111561085557600080fd5b803590602001918460208302840111600160201b8311171561087657600080fd5b91935091506001600160a01b038135169060200135611ece565b34801561089c57600080fd5b506108a5611fcb565b604080516001600160a01b039092168252519081900360200190f35b3480156108cd57600080fd5b5061024a600480360360608110156108e457600080fd5b5080359060208101359060400135611fef565b34801561090357600080fd5b5061024a600480360360c081101561091a57600080fd5b506001600160a01b0381358116916020810135916040820135916060810135916080820135169060a00135611ffc565b6101a16004803603608081101561096057600080fd5b81359190810190604081016020820135600160201b81111561098157600080fd5b82018360208201111561099357600080fd5b803590602001918460208302840111600160201b831117156109b457600080fd5b91935091506001600160a01b03813516906020013561217d565b3480156109da57600080fd5b506101fb600480360360e08110156109f157600080fd5b506001600160a01b038135811691602081013582169160408201359160608101359160808201359160a08101359091169060c00135612509565b348015610a3757600080fd5b506108a561274d565b348015610a4c57600080fd5b506108a5612771565b348015610a6157600080fd5b506102f260048036036040811015610a7857600080fd5b81359190810190604081016020820135600160201b811115610a9957600080fd5b820183602082011115610aab57600080fd5b803590602001918460208302840111600160201b83111715610acc57600080fd5b919080806020026020016040519081016040528093929190818152602001838360200280828437600092019190915250929550612780945050505050565b348015610b1657600080fd5b506101fb6004803603610140811015610b2e57600080fd5b506001600160a01b0381358116916020810135916040820135916060810135916080820135169060a08101359060c081013515159060ff60e082013516906101008101359061012001356127b0565b348015610b8957600080fd5b50610bdf6004803603610100811015610ba157600080fd5b506001600160a01b038135811691602081013582169160408201359160608101359160808201359160a08101359160c0820135169060e001356128c4565b60408051938452602084019290925282820152519081900360600190f35b610bdf600480360360c0811015610c1357600080fd5b506001600160a01b0381358116916020810135916040820135916060810135916080820135169060a00135612a00565b6102f260048036036080811015610c5957600080fd5b81359190810190604081016020820135600160201b811115610c7a57600080fd5b820183602082011115610c8c57600080fd5b803590602001918460208302840111600160201b83111715610cad57600080fd5b91935091506001600160a01b038135169060200135612ca5565b6000808242811015610d0e576040805162461bcd60e51b81526020600482015260186024820152600080516020614804833981519152604482015290519081900360640190fd5b610d3d897f00000000000000000000000000000000000000000000000000000000000000008a8a8a308a612509565b9093509150610d4d89868561302b565b7f00000000000000000000000000000000000000000000000000000000000000006001600160a01b0316632e1a7d4d836040518263ffffffff1660e01b815260040180828152602001915050600060405180830381600087803b158015610db357600080fd5b505af1158015610dc7573d6000803e3d6000fd5b50505050610dd5858361317f565b50965096945050505050565b6000610dee848484613277565b949350505050565b60608142811015610e3c576040805162461bcd60e51b81526020600482015260186024820152600080516020614804833981519152604482015290519081900360640190fd5b6001600160a01b037f00000000000000000000000000000000000000000000000000000000000000001686866000198101818110610e7657fe5b905060200201356001600160a01b03166001600160a01b031614610ecf576040805162461bcd60e51b815260206004820152601d602482015260008051602061473b833981519152604482015290519081900360640190fd5b610f367f000000000000000000000000000000000000000000000000000000000000000089888880806020026020016040519081016040528093929190818152602001838360200280828437600092019190915250610f319250613367915050565b613379565b91508682600184510381518110610f4957fe5b60200260200101511015610f8e5760405162461bcd60e51b815260040180806020018281038252602b815260200180614781602b913960400191505060405180910390fd5b61102c86866000818110610f9e57fe5b905060200201356001600160a01b0316336110127f00000000000000000000000000000000000000000000000000000000000000008a8a6000818110610fe057fe5b905060200201356001600160a01b03168b8b6001818110610ffd57fe5b905060200201356001600160a01b03166134c7565b8560008151811061101f57fe5b6020026020010151613587565b61106b828787808060200260200160405190810160405280939291908181526020018383602002808284376000920191909152503092506136e4915050565b7f00000000000000000000000000000000000000000000000000000000000000006001600160a01b0316632e1a7d4d836001855103815181106110aa57fe5b60200260200101516040518263ffffffff1660e01b815260040180828152602001915050600060405180830381600087803b1580156110e857600080fd5b505af11580156110fc573d6000803e3d6000fd5b50505050611121848360018551038151811061111457fe5b602002602001015161317f565b509695505050505050565b60606111617f0000000000000000000000000000000000000000000000000000000000000000848461115c613367565b61392a565b90505b92915050565b600080600061119a7f00000000000000000000000000000000000000000000000000000000000000008f8f6134c7565b90506000876111a9578c6111ad565b6000195b6040805163d505accf60e01b815233600482015230602482015260448101839052606481018c905260ff8a16608482015260a4810189905260c4810188905290519192506001600160a01b0384169163d505accf9160e48082019260009290919082900301818387803b15801561122357600080fd5b505af1158015611237573d6000803e3d6000fd5b5050505061124a8f8f8f8f8f8f8f612509565b809450819550505050509b509b9950505050505050505050565b606081428110156112aa576040805162461bcd60e51b81526020600482015260186024820152600080516020614804833981519152604482015290519081900360640190fd5b61130c7f000000000000000000000000000000000000000000000000000000000000000089888880806020026020016040519081016040528093929190818152602001838360200280828437600092019190915250610f319250613367915050565b9150868260018451038151811061131f57fe5b602002602001015110156113645760405162461bcd60e51b815260040180806020018281038252602b815260200180614781602b913960400191505060405180910390fd5b61137486866000818110610f9e57fe5b611121828787808060200260200160405190810160405280939291908181526020018383602002808284376000920191909152508992506136e4915050565b606081428110156113f9576040805162461bcd60e51b81526020600482015260186024820152600080516020614804833981519152604482015290519081900360640190fd5b6001600160a01b037f0000000000000000000000000000000000000000000000000000000000000000168686600019810181811061143357fe5b905060200201356001600160a01b03166001600160a01b03161461148c576040805162461bcd60e51b815260206004820152601d602482015260008051602061473b833981519152604482015290519081900360640190fd5b6114ee7f00000000000000000000000000000000000000000000000000000000000000008988888080602002602001604051908101604052809392919081815260200183836020028082843760009201919091525061115c9250613367915050565b915086826000815181106114fe57fe5b60200260200101511115610f8e5760405162461bcd60e51b81526004018080602001828103825260278152602001806147146027913960400191505060405180910390fd5b6000806115917f00000000000000000000000000000000000000000000000000000000000000008d7f00000000000000000000000000000000000000000000000000000000000000006134c7565b90506000866115a0578b6115a4565b6000195b6040805163d505accf60e01b815233600482015230602482015260448101839052606481018b905260ff8916608482015260a4810188905260c4810187905290519192506001600160a01b0384169163d505accf9160e48082019260009290919082900301818387803b15801561161a57600080fd5b505af115801561162e573d6000803e3d6000fd5b505050506116408d8d8d8d8d8d611ffc565b9d9c50505050505050505050505050565b8042811015611695576040805162461bcd60e51b81526020600482015260186024820152600080516020614804833981519152604482015290519081900360640190fd5b61170a858560008181106116a557fe5b905060200201356001600160a01b0316336117047f0000000000000000000000000000000000000000000000000000000000000000898960008181106116e757fe5b905060200201356001600160a01b03168a8a6001818110610ffd57fe5b8a613587565b60008585600019810181811061171c57fe5b905060200201356001600160a01b03166001600160a01b03166370a08231856040518263ffffffff1660e01b815260040180826001600160a01b03166001600160a01b0316815260200191505060206040518083038186803b15801561178157600080fd5b505afa158015611795573d6000803e3d6000fd5b505050506040513d60208110156117ab57600080fd5b505160408051602088810282810182019093528882529293506117ed929091899189918291850190849080828437600092019190915250889250613a63915050565b8661189f828888600019810181811061180257fe5b905060200201356001600160a01b03166001600160a01b03166370a08231886040518263ffffffff1660e01b815260040180826001600160a01b03166001600160a01b0316815260200191505060206040518083038186803b15801561186757600080fd5b505afa15801561187b573d6000803e3d6000fd5b505050506040513d602081101561189157600080fd5b50519063ffffffff613d6e16565b10156118dc5760405162461bcd60e51b815260040180806020018281038252602b815260200180614781602b913960400191505060405180910390fd5b5050505050505050565b804281101561192a576040805162461bcd60e51b81526020600482015260186024820152600080516020614804833981519152604482015290519081900360640190fd5b6001600160a01b037f0000000000000000000000000000000000000000000000000000000000000000168585600019810181811061196457fe5b905060200201356001600160a01b03166001600160a01b0316146119bd576040805162461bcd60e51b815260206004820152601d602482015260008051602061473b833981519152604482015290519081900360640190fd5b6119cd858560008181106116a557fe5b611a0b858580806020026020016040519081016040528093929190818152602001838360200280828437600092019190915250309250613a63915050565b604080516370a0823160e01b815230600482015290516000916001600160a01b037f000000000000000000000000000000000000000000000000000000000000000016916370a0823191602480820192602092909190829003018186803b158015611a7557600080fd5b505afa158015611a89573d6000803e3d6000fd5b505050506040513d6020811015611a9f57600080fd5b5051905086811015611ae25760405162461bcd60e51b815260040180806020018281038252602b815260200180614781602b913960400191505060405180910390fd5b7f00000000000000000000000000000000000000000000000000000000000000006001600160a01b0316632e1a7d4d826040518263ffffffff1660e01b815260040180828152602001915050600060405180830381600087803b158015611b4857600080fd5b505af1158015611b5c573d6000803e3d6000fd5b505050506118dc848261317f565b60608142811015611bb0576040805162461bcd60e51b81526020600482015260186024820152600080516020614804833981519152604482015290519081900360640190fd5b7f00000000000000000000000000000000000000000000000000000000000000006001600160a01b031686866000818110611be757fe5b905060200201356001600160a01b03166001600160a01b031614611c40576040805162461bcd60e51b815260206004820152601d602482015260008051602061473b833981519152604482015290519081900360640190fd5b611ca27f000000000000000000000000000000000000000000000000000000000000000034888880806020026020016040519081016040528093929190818152602001838360200280828437600092019190915250610f319250613367915050565b91508682600184510381518110611cb557fe5b60200260200101511015611cfa5760405162461bcd60e51b815260040180806020018281038252602b815260200180614781602b913960400191505060405180910390fd5b7f00000000000000000000000000000000000000000000000000000000000000006001600160a01b031663d0e30db083600081518110611d3657fe5b60200260200101516040518263ffffffff1660e01b81526004016000604051808303818588803b158015611d6957600080fd5b505af1158015611d7d573d6000803e3d6000fd5b50505050507f00000000000000000000000000000000000000000000000000000000000000006001600160a01b031663a9059cbb611de27f0000000000000000000000000000000000000000000000000000000000000000898960008181106116e757fe5b84600081518110611def57fe5b60200260200101516040518363ffffffff1660e01b815260040180836001600160a01b03166001600160a01b0316815260200182815260200192505050602060405180830381600087803b158015611e4657600080fd5b505af1158015611e5a573d6000803e3d6000fd5b505050506040513d6020811015611e7057600080fd5b5051611e7857fe5b611eb7828787808060200260200160405190810160405280939291908181526020018383602002808284376000920191909152508992506136e4915050565b5095945050505050565b6000610dee848484613dbe565b60608142811015611f14576040805162461bcd60e51b81526020600482015260186024820152600080516020614804833981519152604482015290519081900360640190fd5b611f767f00000000000000000000000000000000000000000000000000000000000000008988888080602002602001604051908101604052809392919081815260200183836020028082843760009201919091525061115c9250613367915050565b91508682600081518110611f8657fe5b602002602001015111156113645760405162461bcd60e51b81526004018080602001828103825260278152602001806147146027913960400191505060405180910390fd5b7f000000000000000000000000000000000000000000000000000000000000000081565b6000610dee848484613eae565b60008142811015612042576040805162461bcd60e51b81526020600482015260186024820152600080516020614804833981519152604482015290519081900360640190fd5b612071887f00000000000000000000000000000000000000000000000000000000000000008989893089612509565b604080516370a0823160e01b815230600482015290519194506120f592508a9187916001600160a01b038416916370a0823191602480820192602092909190829003018186803b1580156120c457600080fd5b505afa1580156120d8573d6000803e3d6000fd5b505050506040513d60208110156120ee57600080fd5b505161302b565b7f00000000000000000000000000000000000000000000000000000000000000006001600160a01b0316632e1a7d4d836040518263ffffffff1660e01b815260040180828152602001915050600060405180830381600087803b15801561215b57600080fd5b505af115801561216f573d6000803e3d6000fd5b50505050611121848361317f565b80428110156121c1576040805162461bcd60e51b81526020600482015260186024820152600080516020614804833981519152604482015290519081900360640190fd5b7f00000000000000000000000000000000000000000000000000000000000000006001600160a01b0316858560008181106121f857fe5b905060200201356001600160a01b03166001600160a01b031614612251576040805162461bcd60e51b815260206004820152601d602482015260008051602061473b833981519152604482015290519081900360640190fd5b60003490507f00000000000000000000000000000000000000000000000000000000000000006001600160a01b031663d0e30db0826040518263ffffffff1660e01b81526004016000604051808303818588803b1580156122b157600080fd5b505af11580156122c5573d6000803e3d6000fd5b50505050507f00000000000000000000000000000000000000000000000000000000000000006001600160a01b031663a9059cbb61232a7f0000000000000000000000000000000000000000000000000000000000000000898960008181106116e757fe5b836040518363ffffffff1660e01b815260040180836001600160a01b03166001600160a01b0316815260200182815260200192505050602060405180830381600087803b15801561237a57600080fd5b505af115801561238e573d6000803e3d6000fd5b505050506040513d60208110156123a457600080fd5b50516123ac57fe5b6000868660001981018181106123be57fe5b905060200201356001600160a01b03166001600160a01b03166370a08231866040518263ffffffff1660e01b815260040180826001600160a01b03166001600160a01b0316815260200191505060206040518083038186803b15801561242357600080fd5b505afa158015612437573d6000803e3d6000fd5b505050506040513d602081101561244d57600080fd5b5051604080516020898102828101820190935289825292935061248f9290918a918a918291850190849080828437600092019190915250899250613a63915050565b8761189f82898960001981018181106124a457fe5b905060200201356001600160a01b03166001600160a01b03166370a08231896040518263ffffffff1660e01b815260040180826001600160a01b03166001600160a01b0316815260200191505060206040518083038186803b15801561186757600080fd5b6000808242811015612550576040805162461bcd60e51b81526020600482015260186024820152600080516020614804833981519152604482015290519081900360640190fd5b600061257d7f00000000000000000000000000000000000000000000000000000000000000008c8c6134c7565b604080516323b872dd60e01b81523360048201526001600160a01b03831660248201819052604482018d9052915192935090916323b872dd916064808201926020929091908290030181600087803b1580156125d857600080fd5b505af11580156125ec573d6000803e3d6000fd5b505050506040513d602081101561260257600080fd5b50506040805163226bf2d160e21b81526001600160a01b03888116600483015282516000938493928616926389afcb44926024808301939282900301818787803b15801561264f57600080fd5b505af1158015612663573d6000803e3d6000fd5b505050506040513d604081101561267957600080fd5b508051602090910151909250905060006126938e8e613f5a565b509050806001600160a01b03168e6001600160a01b0316146126b65781836126b9565b82825b90975095508a8710156126fd5760405162461bcd60e51b815260040180806020018281038252602681526020018061475b6026913960400191505060405180910390fd5b8986101561273c5760405162461bcd60e51b81526004018080602001828103825260268152602001806146a16026913960400191505060405180910390fd5b505050505097509795505050505050565b7f000000000000000000000000000000000000000000000000000000000000000081565b6000546001600160a01b031681565b60606111617f00000000000000000000000000000000000000000000000000000000000000008484610f31613367565b60008060006128007f00000000000000000000000000000000000000000000000000000000000000008e7f00000000000000000000000000000000000000000000000000000000000000006134c7565b905060008761280f578c612813565b6000195b6040805163d505accf60e01b815233600482015230602482015260448101839052606481018c905260ff8a16608482015260a4810189905260c4810188905290519192506001600160a01b0384169163d505accf9160e48082019260009290919082900301818387803b15801561288957600080fd5b505af115801561289d573d6000803e3d6000fd5b505050506128af8e8e8e8e8e8e610cc7565b909f909e509c50505050505050505050505050565b6000806000834281101561290d576040805162461bcd60e51b81526020600482015260186024820152600080516020614804833981519152604482015290519081900360640190fd5b61291b8c8c8c8c8c8c614038565b9094509250600061294d7f00000000000000000000000000000000000000000000000000000000000000008e8e6134c7565b905061295b8d338388613587565b6129678c338387613587565b806001600160a01b0316636a627842886040518263ffffffff1660e01b815260040180826001600160a01b03166001600160a01b03168152602001915050602060405180830381600087803b1580156129bf57600080fd5b505af11580156129d3573d6000803e3d6000fd5b505050506040513d60208110156129e957600080fd5b5051949d939c50939a509198505050505050505050565b60008060008342811015612a49576040805162461bcd60e51b81526020600482015260186024820152600080516020614804833981519152604482015290519081900360640190fd5b612a778a7f00000000000000000000000000000000000000000000000000000000000000008b348c8c614038565b90945092506000612ac97f00000000000000000000000000000000000000000000000000000000000000008c7f00000000000000000000000000000000000000000000000000000000000000006134c7565b9050612ad78b338388613587565b7f00000000000000000000000000000000000000000000000000000000000000006001600160a01b031663d0e30db0856040518263ffffffff1660e01b81526004016000604051808303818588803b158015612b3257600080fd5b505af1158015612b46573d6000803e3d6000fd5b50505050507f00000000000000000000000000000000000000000000000000000000000000006001600160a01b031663a9059cbb82866040518363ffffffff1660e01b815260040180836001600160a01b03166001600160a01b0316815260200182815260200192505050602060405180830381600087803b158015612bcb57600080fd5b505af1158015612bdf573d6000803e3d6000fd5b505050506040513d6020811015612bf557600080fd5b5051612bfd57fe5b806001600160a01b0316636a627842886040518263ffffffff1660e01b815260040180826001600160a01b03166001600160a01b03168152602001915050602060405180830381600087803b158015612c5557600080fd5b505af1158015612c69573d6000803e3d6000fd5b505050506040513d6020811015612c7f57600080fd5b5051925034841015612c9757612c973385340361317f565b505096509650969350505050565b60608142811015612ceb576040805162461bcd60e51b81526020600482015260186024820152600080516020614804833981519152604482015290519081900360640190fd5b7f00000000000000000000000000000000000000000000000000000000000000006001600160a01b031686866000818110612d2257fe5b905060200201356001600160a01b03166001600160a01b031614612d7b576040805162461bcd60e51b815260206004820152601d602482015260008051602061473b833981519152604482015290519081900360640190fd5b612ddd7f00000000000000000000000000000000000000000000000000000000000000008888888080602002602001604051908101604052809392919081815260200183836020028082843760009201919091525061115c9250613367915050565b91503482600081518110612ded57fe5b60200260200101511115612e325760405162461bcd60e51b81526004018080602001828103825260278152602001806147146027913960400191505060405180910390fd5b7f00000000000000000000000000000000000000000000000000000000000000006001600160a01b031663d0e30db083600081518110612e6e57fe5b60200260200101516040518263ffffffff1660e01b81526004016000604051808303818588803b158015612ea157600080fd5b505af1158015612eb5573d6000803e3d6000fd5b50505050507f00000000000000000000000000000000000000000000000000000000000000006001600160a01b031663a9059cbb612f1a7f0000000000000000000000000000000000000000000000000000000000000000898960008181106116e757fe5b84600081518110612f2757fe5b60200260200101516040518363ffffffff1660e01b815260040180836001600160a01b03166001600160a01b0316815260200182815260200192505050602060405180830381600087803b158015612f7e57600080fd5b505af1158015612f92573d6000803e3d6000fd5b505050506040513d6020811015612fa857600080fd5b5051612fb057fe5b612fef828787808060200260200160405190810160405280939291908181526020018383602002808284376000920191909152508992506136e4915050565b81600081518110612ffc57fe5b6020026020010151341115611eb757611eb7338360008151811061301c57fe5b6020026020010151340361317f565b604080516001600160a01b038481166024830152604480830185905283518084039091018152606490920183526020820180516001600160e01b031663a9059cbb60e01b178152925182516000946060949389169392918291908083835b602083106130a85780518252601f199092019160209182019101613089565b6001836020036101000a0380198251168184511680821785525050505050509050019150506000604051808303816000865af19150503d806000811461310a576040519150601f19603f3d011682016040523d82523d6000602084013e61310f565b606091505b509150915081801561313d57508051158061313d575080806020019051602081101561313a57600080fd5b50515b6131785760405162461bcd60e51b815260040180806020018281038252602d8152602001806147ac602d913960400191505060405180910390fd5b5050505050565b604080516000808252602082019092526001600160a01b0384169083906040518082805190602001908083835b602083106131cb5780518252601f1990920191602091820191016131ac565b6001836020036101000a03801982511681845116808217855250505050505090500191505060006040518083038185875af1925050503d806000811461322d576040519150601f19603f3d011682016040523d82523d6000602084013e613232565b606091505b50509050806132725760405162461bcd60e51b81526004018080602001828103825260348152602001806146486034913960400191505060405180910390fd5b505050565b60008084116132b75760405162461bcd60e51b815260040180806020018281038252602b8152602001806147d9602b913960400191505060405180910390fd5b6000831180156132c75750600082115b6133025760405162461bcd60e51b81526004018080602001828103825260288152602001806146c76028913960400191505060405180910390fd5b6000613316856103e563ffffffff6142ac16565b9050600061332a828563ffffffff6142ac16565b9050600061335083613344886103e863ffffffff6142ac16565b9063ffffffff61430f16565b905080828161335b57fe5b04979650505050505050565b6000546001600160a01b031633141590565b60606002835110156133d2576040805162461bcd60e51b815260206004820152601e60248201527f556e697377617056324c6962726172793a20494e56414c49445f504154480000604482015290519081900360640190fd5b825167ffffffffffffffff811180156133ea57600080fd5b50604051908082528060200260200182016040528015613414578160200160208202803683370190505b509050838160008151811061342557fe5b60200260200101818152505060005b60018451038110156134be576000806134778887858151811061345357fe5b602002602001015188866001018151811061346a57fe5b602002602001015161435e565b9150915061349a84848151811061348a57fe5b6020026020010151838388614425565b8484600101815181106134a957fe5b60209081029190910101525050600101613434565b50949350505050565b60008060006134d68585613f5a565b604080516bffffffffffffffffffffffff19606094851b811660208084019190915293851b81166034830152825160288184030181526048830184528051908501206001600160f81b031960688401529a90941b9093166069840152607d8301989098527fd9becdfc30bbec341fd5a35ce5e24a7bef2f3d0bff4d43b5f8bf4e1528966ff8609d808401919091528851808403909101815260bd909201909752805196019590952095945050505050565b604080516001600160a01b0385811660248301528481166044830152606480830185905283518084039091018152608490920183526020820180516001600160e01b03166323b872dd60e01b17815292518251600094606094938a169392918291908083835b6020831061360c5780518252601f1990920191602091820191016135ed565b6001836020036101000a0380198251168184511680821785525050505050509050019150506000604051808303816000865af19150503d806000811461366e576040519150601f19603f3d011682016040523d82523d6000602084013e613673565b606091505b50915091508180156136a15750805115806136a1575080806020019051602081101561369e57600080fd5b50515b6136dc5760405162461bcd60e51b81526004018080602001828103825260318152602001806146176031913960400191505060405180910390fd5b505050505050565b60005b60018351038110156139245760008084838151811061370257fe5b602002602001015185846001018151811061371957fe5b60200260200101519150915060006137318383613f5a565b509050600087856001018151811061374557fe5b60200260200101519050600080836001600160a01b0316866001600160a01b03161461377357826000613777565b6000835b91509150600060028a5103881061378e57886137cf565b6137cf7f0000000000000000000000000000000000000000000000000000000000000000878c8b600201815181106137c257fe5b60200260200101516134c7565b90506137fc7f000000000000000000000000000000000000000000000000000000000000000088886134c7565b6001600160a01b031663022c0d9f84848460006040519080825280601f01601f191660200182016040528015613839576020820181803683370190505b506040518563ffffffff1660e01b815260040180858152602001848152602001836001600160a01b03166001600160a01b0316815260200180602001828103825283818151815260200191508051906020019080838360005b838110156138aa578181015183820152602001613892565b50505050905090810190601f1680156138d75780820380516001836020036101000a031916815260200191505b5095505050505050600060405180830381600087803b1580156138f957600080fd5b505af115801561390d573d6000803e3d6000fd5b5050600190990198506136e7975050505050505050565b50505050565b6060600283511015613983576040805162461bcd60e51b815260206004820152601e60248201527f556e697377617056324c6962726172793a20494e56414c49445f504154480000604482015290519081900360640190fd5b825167ffffffffffffffff8111801561399b57600080fd5b506040519080825280602002602001820160405280156139c5578160200160208202803683370190505b50905083816001835103815181106139d957fe5b60209081029190910101528251600019015b80156134be57600080613a1b88876001860381518110613a0757fe5b602002602001015188868151811061346a57fe5b91509150613a3e848481518110613a2e57fe5b602002602001015183838861451f565b846001850381518110613a4d57fe5b60209081029190910101525050600019016139eb565b60005b600183510381101561327257600080848381518110613a8157fe5b6020026020010151858460010181518110613a9857fe5b6020026020010151915091506000613ab08383613f5a565b5090506000613ae07f000000000000000000000000000000000000000000000000000000000000000085856134c7565b9050600080600080846001600160a01b0316630902f1ac6040518163ffffffff1660e01b815260040160606040518083038186803b158015613b2157600080fd5b505afa158015613b35573d6000803e3d6000fd5b505050506040513d6060811015613b4b57600080fd5b5080516020909101516001600160701b0391821693501690506000806001600160a01b038a811690891614613b81578284613b84565b83835b91509150613be2828b6001600160a01b03166370a082318a6040518263ffffffff1660e01b815260040180826001600160a01b03166001600160a01b0316815260200191505060206040518083038186803b15801561186757600080fd5b9550613bef868383613277565b945050505050600080856001600160a01b0316886001600160a01b031614613c1957826000613c1d565b6000835b91509150600060028c51038a10613c34578a613c68565b613c687f0000000000000000000000000000000000000000000000000000000000000000898e8d600201815181106137c257fe5b604080516000808252602082019283905263022c0d9f60e01b835260248201878152604483018790526001600160a01b038086166064850152608060848501908152845160a48601819052969750908c169563022c0d9f958a958a958a9591949193919260c486019290918190849084905b83811015613cf2578181015183820152602001613cda565b50505050905090810190601f168015613d1f5780820380516001836020036101000a031916815260200191505b5095505050505050600060405180830381600087803b158015613d4157600080fd5b505af1158015613d55573d6000803e3d6000fd5b50506001909b019a50613a669950505050505050505050565b80820382811115611164576040805162461bcd60e51b815260206004820152601560248201527464732d6d6174682d7375622d756e646572666c6f7760581b604482015290519081900360640190fd5b6000808411613dfe5760405162461bcd60e51b815260040180806020018281038252602c8152602001806145eb602c913960400191505060405180910390fd5b600083118015613e0e5750600082115b613e495760405162461bcd60e51b81526004018080602001828103825260288152602001806146c76028913960400191505060405180910390fd5b6000613e6d6103e8613e61868863ffffffff6142ac16565b9063ffffffff6142ac16565b90506000613e876103e5613e61868963ffffffff613d6e16565b9050613ea46001828481613e9757fe5b049063ffffffff61430f16565b9695505050505050565b6000808411613eee5760405162461bcd60e51b81526004018080602001828103825260258152602001806146ef6025913960400191505060405180910390fd5b600083118015613efe5750600082115b613f395760405162461bcd60e51b81526004018080602001828103825260288152602001806146c76028913960400191505060405180910390fd5b82613f4a858463ffffffff6142ac16565b81613f5157fe5b04949350505050565b600080826001600160a01b0316846001600160a01b03161415613fae5760405162461bcd60e51b815260040180806020018281038252602581526020018061467c6025913960400191505060405180910390fd5b826001600160a01b0316846001600160a01b031610613fce578284613fd1565b83835b90925090506001600160a01b038216614031576040805162461bcd60e51b815260206004820152601e60248201527f556e697377617056324c6962726172793a205a45524f5f414444524553530000604482015290519081900360640190fd5b9250929050565b6040805163e6a4390560e01b81526001600160a01b03888116600483015287811660248301529151600092839283927f00000000000000000000000000000000000000000000000000000000000000009092169163e6a4390591604480820192602092909190829003018186803b1580156140b257600080fd5b505afa1580156140c6573d6000803e3d6000fd5b505050506040513d60208110156140dc57600080fd5b50516001600160a01b0316141561418f57604080516364e329cb60e11b81526001600160a01b038a81166004830152898116602483015291517f00000000000000000000000000000000000000000000000000000000000000009092169163c9c65396916044808201926020929091908290030181600087803b15801561416257600080fd5b505af1158015614176573d6000803e3d6000fd5b505050506040513d602081101561418c57600080fd5b50505b6000806141bd7f00000000000000000000000000000000000000000000000000000000000000008b8b61435e565b915091508160001480156141cf575080155b156141df5787935086925061429f565b60006141ec898484613eae565b905087811161423f57858110156142345760405162461bcd60e51b81526004018080602001828103825260268152602001806146a16026913960400191505060405180910390fd5b88945092508261429d565b600061424c898486613eae565b90508981111561425857fe5b878110156142975760405162461bcd60e51b815260040180806020018281038252602681526020018061475b6026913960400191505060405180910390fd5b94508793505b505b5050965096945050505050565b60008115806142c7575050808202828282816142c457fe5b04145b611164576040805162461bcd60e51b815260206004820152601460248201527364732d6d6174682d6d756c2d6f766572666c6f7760601b604482015290519081900360640190fd5b80820182811015611164576040805162461bcd60e51b815260206004820152601460248201527364732d6d6174682d6164642d6f766572666c6f7760601b604482015290519081900360640190fd5b600080600061436d8585613f5a565b50905060008061437e8888886134c7565b6001600160a01b0316630902f1ac6040518163ffffffff1660e01b815260040160606040518083038186803b1580156143b657600080fd5b505afa1580156143ca573d6000803e3d6000fd5b505050506040513d60608110156143e057600080fd5b5080516020909101516001600160701b0391821693501690506001600160a01b0387811690841614614413578082614416565b81815b90999098509650505050505050565b6000811561443f57614438858585613277565b9050610dee565b6000851161447e5760405162461bcd60e51b815260040180806020018281038252602b8152602001806147d9602b913960400191505060405180910390fd5b60008411801561448e5750600083115b6144c95760405162461bcd60e51b81526004018080602001828103825260288152602001806146c76028913960400191505060405180910390fd5b60006144dd866103e863ffffffff6142ac16565b905060006144f1828663ffffffff6142ac16565b90506000614507876103e863ffffffff6142ac16565b905080828161451257fe5b0498975050505050505050565b6000811561453257614438858585613dbe565b600085116145715760405162461bcd60e51b815260040180806020018281038252602c8152602001806145eb602c913960400191505060405180910390fd5b6000841180156145815750600083115b6145bc5760405162461bcd60e51b81526004018080602001828103825260288152602001806146c76028913960400191505060405180910390fd5b60006145d46103e8613e61878963ffffffff6142ac16565b90506000613350856103e863ffffffff6142ac1656fe556e697377617056324c6962726172793a20494e53554646494349454e545f4f55545055545f414d4f554e545472616e7366657248656c7065723a3a7472616e7366657246726f6d3a207472616e7366657246726f6d206661696c65645472616e7366657248656c7065723a3a736166655472616e736665724554483a20455448207472616e73666572206661696c6564556e697377617056324c6962726172793a204944454e544943414c5f414444524553534553556e69737761705632526f757465723a20494e53554646494349454e545f425f414d4f554e54556e697377617056324c6962726172793a20494e53554646494349454e545f4c4951554944495459556e697377617056324c6962726172793a20494e53554646494349454e545f414d4f554e54556e69737761705632526f757465723a204558434553534956455f494e5055545f414d4f554e54556e69737761705632526f757465723a20494e56414c49445f50415448000000556e69737761705632526f757465723a20494e53554646494349454e545f415f414d4f554e54556e69737761705632526f757465723a20494e53554646494349454e545f4f55545055545f414d4f554e545472616e7366657248656c7065723a3a736166655472616e736665723a207472616e73666572206661696c6564556e697377617056324c6962726172793a20494e53554646494349454e545f494e5055545f414d4f554e54556e69737761705632526f757465723a20455850495245440000000000000000a264697066735822122028dcdda8f703516581d6b4307a02cf70cdcc111887ee20e052e98791715457c464736f6c63430006060033",
    "linkReferences": {}
  },
  "methodIdentifiers": {
    "WETH()": "ad5c4648",
    "addLiquidity(address,address,uint256,uint256,uint256,uint256,address,uint256)": "e8e33700",
    "addLiquidityETH(address,uint256,uint256,uint256,address,uint256)": "f305d719",
    "dsSwapContract()": "caa0c28c",
    "factory()": "c45a0155",
    "getAmountIn(uint256,uint256,uint256)": "85f8c259",
    "getAmountOut(uint256,uint256,uint256)": "054d50d4",
    "getAmountsIn(uint256,address[])": "1f00ca74",
    "getAmountsOut(uint256,address[])": "d06ca61f",
    "quote(uint256,uint256,uint256)": "ad615dec",
    "removeLiquidity(address,address,uint256,uint256,uint256,address,uint256)": "baa2abde",
    "removeLiquidityETH(address,uint256,uint256,uint256,address,uint256)": "02751cec",
    "removeLiquidityETHSupportingFeeOnTransferTokens(address,uint256,uint256,uint256,address,uint256)": "af2979eb",
    "removeLiquidityETHWithPermit(address,uint256,uint256,uint256,address,uint256,bool,uint8,bytes32,bytes32)": "ded9382a",
    "removeLiquidityETHWithPermitSupportingFeeOnTransferTokens(address,uint256,uint256,uint256,address,uint256,bool,uint8,bytes32,bytes32)": "5b0d5984",
    "removeLiquidityWithPermit(address,address,uint256,uint256,uint256,address,uint256,bool,uint8,bytes32,bytes32)": "2195995c",
    "swapETHForExactTokens(uint256,address[],address,uint256)": "fb3bdb41",
    "swapExactETHForTokens(uint256,address[],address,uint256)": "7ff36ab5",
    "swapExactETHForTokensSupportingFeeOnTransferTokens(uint256,address[],address,uint256)": "b6f9de95",
    "swapExactTokensForETH(uint256,uint256,address[],address,uint256)": "18cbafe5",
    "swapExactTokensForETHSupportingFeeOnTransferTokens(uint256,uint256,address[],address,uint256)": "791ac947",
    "swapExactTokensForTokens(uint256,uint256,address[],address,uint256)": "38ed1739",
    "swapExactTokensForTokensSupportingFeeOnTransferTokens(uint256,uint256,address[],address,uint256)": "5c11d795",
    "swapTokensForExactETH(uint256,uint256,address[],address,uint256)": "4a25d94a",
    "swapTokensForExactTokens(uint256,uint256,address[],address,uint256)": "8803dbee"
  },
  "id": 2
}